S00A00004D4D2E7372656380
S11300000C94F0000C940D010C940D010C940D0152
S11300100C940D010C940D010C940D010C940D0124
S11300200C940D010C940D010C940D010C940D0114
S11300300C940D010C940D010C940D010C940D0104
S11300400C940D010C940D010C940D010C940D01F4
S11300500C940D010C940D010C940D010C940D01E4
S11300600C940D010C940D0172016A0164015E018E
S1130070580152014C01460140013A01AD03DF042D
S1130080DF04DF04DF04DF04DF04DF049E04DF0495
S1130090DF045C04B404DF04DF04C702DE02F502FB
S11300A00C0323033A03510368037F039603C40339
S11300B0DF04DF04DF04DF04DF04DF04DF04DF0424
S11300C0DF04DF04DF04DF04DF04DF04DF04DF0414
S11300D0DF04DF04DF04DF04DF04DF04DF04DF0404
S11300E0DF04DF04DF04DF04DF04DF04DF04DF04F4
S11300F0DF04DF04DF04DF04DF04DF044E02DF0477
S1130100DF0460028802DF04DF047202DF04DF041C
S1130110CA049E02DF04DF04B002DF04DF04160217
S1130120DF0438022802DF04DF04DF040402DF04F2
S1130130DF04DF04DF04DF04DF04DF04DF04DF04A3
S1130140DF04DF04DF04DF04DF04DF04DF04DF0493
S1130150DF04DF04DF04DF04DF04DF04DF04DF0483
S1130160DF04DF04DF04DF04DF04DF04DF04DF0473
S1130170DF04DF04DF04DF04DF04DF04DF04DF0463
S1130180DF04DF04DF04DF04DF04DF04DF04DF0453
S1130190DF04DF04DF04DF04DF04DF04DF04DF0443
S11301A0DF04DF04DF04DF04DF04DF04DF04DF0433
S11301B0DF04DF04DF04DF04DF04DF04DF041904E9
S11301C07204DF043004DF04DF040904DF04DF0405
S11301D0DF04DF048804DF04DB03F203DF044604E6
S11301E011241FBECFEFD8E0DEBFCDBF11E0A0E0E9
S11301F0B1E0E6EAF2E102C005900D92A037B10742
S1130200D9F721E0A0E7B1E001C01D92A23EB207F8
S1130210E1F70E94F6060C9451090C94000087B192
S11302208F6187B98AB18E6F8AB984B1836084B9CA
S1130230089588B1807E88B98BB11BB885B18C7F55
S113024085B908950F931F93CF93DF9300D0CDB753
S1130250DEB7182F062F0E94190119821A82812FE6
S113026090E08A30910508F044C0FC01EC5CFF4F3B
S11302700C944B0981E089838A81897F8A8339C000
S113028082E089838A81897F8A8333C084E0898379
S11302908A81897F8A832DC088E089838A81897FC6
S11302A08A8327C080E189838A81897F8A8321C0E8
S11302B080E289838A81897F8A831BC080E4898361
S11302C08A81897F8A8315C080E889838A81897FAE
S11302D08A830FC08A81897F8A838A8184608A8322
S11302E0198207C08A81897F8A838A8182608A838E
S11302F0198289818BB98A8185B908B90F900F90C9
S1130300DF91CF911F910F9108958A3038F4E0E77F
S1130310F1E090E39083805D818308952DEC829FCA
S1130320912D1124969596959695492F440F342F27
S1130330330F330F340F831B805DE0E7F1E08183DB
S1130340929F812D1124869586958695880F282F56
S1130350220F220F820F981B905D908308953F9285
S11303604F925F926F927F928F929F92AF92BF92C1
S1130370CF92DF92EF92FF920F931F93CF93DF936D
S1130380CDB7DEB727970FB6F894DEBF0FBECDBF4B
S1130390198224E6E2E7F1E0DF011D922A95E9F7EC
S11303A0DC01EC91EA3009F416C3312C0F2EF3E38F
S11303B0AF2EF1E0BF2EF02D0F2EF8E1CF2EF1E09D
S11303C0DF2EF02D0F2EFBE1EF2EF1E0FF2EF02DAE
S11303D06CE671E00EE111E00F2EF1E28F2EF1E0F8
S11303E09F2EF02D44E251E029E631E0AAE2B1E08B
S11303F04E2E512CF201B197E23BF10508F0DFC219
S1130400E25CFF4F0C944B09E981F0E0EE0FFF1F13
S1130410EE0FFF1FEE58FE4F40901501509016014D
S113042060901701408251826282C9C2E981F0E082
S1130430EE0FFF1FEE0FFF1FEE58FE4F40905A01C4
S113044050905B0160905C01408251826282B7C22D
S1130450E981F0E0EE0FFF1FEE0FFF1FEE58FE4F95
S11304604D905D906C901297408251826282A7C237
S1130470E981F0E03F01660C771C660C771CF30100
S1130480EE58FE4FFF83EE83FA0140805180628074
S1130490EE81FF8140825182628291C2E981F0E063
S11304A0EE0FFF1FEE0FFF1FEE58FE4F409060014E
S11304B050906101609062014082518262827FC2E9
S11304C0E981F0E0EE0FFF1FEE0FFF1FEE58FE4F25
S11304D040905D0150905E0160905F0140825182C6
S11304E062826DC2E981F0E03F01660C771C660C04
S11304F0771CF301EE58FE4FFF83EE83FB0140802F
S113050051806280EE81FF8140825182628257C2B3
S1130510E981F0E03F01660C771C660C771CF3015F
S1130520EE58FE4FFF83EE83F901408051806280D4
S1130530EE81FF8140825182628241C2E981F0E012
S1130540EE0FFF1FEE0FFF1FEE58FE4F40906601A7
S113055050906701609068014082518262822FC28C
S1130560E981F0E03F01660C771C660C771CF3010F
S1130570EE58FE4FFF83EE83E3E6F1E040805180C6
S11305806280EE81FF8140825182628218C2E981D9
S1130590F0E03F01660C771C660C771CF301EE5803
S11305A0FE4FFF83EE83ECE3F1E0408051806280F4
S11305B0EE81FF8140825182628201C2E981F0E0D2
S11305C03F01660C771C660C771CF301EE58FE4F56
S11305D0FF83EE83E7E5F1E0408051806280EE81A5
S11305E0FF81408251826282EAC1E981F0E03F01E9
S11305F0660C771C660C771CF301EE58FE4FFF83E4
S1130600EE83E4E5F1E0408051806280EE81FF8179
S1130610408251826282D3C1E981F0E03F01660CDD
S1130620771C660C771CF301EE58FE4FFF83EE83B4
S1130630E1E5F1E0408051806280EE81FF814082FB
S113064051826282BCC1E981F0E03F01660C771CF3
S1130650660C771CF301EE58FE4FFF83EE83EEE445
S1130660F1E0408051806280EE81FF8140825182BE
S11306706282A5C1E981F0E03F01660C771C660C3B
S1130680771CF301EE58FE4FFF83EE83EBE4F1E0B9
S1130690408051806280EE81FF814082518262827B
S11306A08EC1E981F0E03F01660C771C660C771C73
S11306B0F301EE58FE4FFF83EE83E8E4F1E040805F
S11306C051806280EE81FF8140825182628277C1D3
S11306D0E981F0E03F01660C771C660C771CF3019E
S11306E0EE58FE4FFF83EE83E5E4F1E04080518055
S11306F06280EE81FF8140825182628260C1E98121
S1130700F0E03F01660C771C660C771CF301EE5891
S1130710FE4FFF83EE83E2E4F1E04080518062808B
S1130720EE81FF8140825182628249C1E981F0E019
S11307303F01660C771C660C771CF301EE58FE4FE4
S1130740FF83EE83EFE3F1E0408051806280EE812D
S1130750FF8140825182628232C1E981F0E03F012F
S1130760660C771C660C771CF301EE58FE4FFF8372
S1130770EE83E6E3F1E0408051806280EE81FF8108
S11307804082518262821BC1E981F0E03F01660C24
S1130790771C660C771CF301EE58FE4FFF83EE8343
S11307A0E9E3F1E0408051806280EE81FF81408284
S11307B05182628204C1E981F0E03F01660C771C3A
S11307C0660C771CF301EE58FE4FFF83EE83E0E3E3
S11307D0F1E0408051806280EE81FF81408251824D
S11307E06282EDC0E981F0E03F01660C771C660C83
S11307F0771CF301EE58FE4FFF83EE83EDE2F1E048
S1130800408051806280EE81FF8140825182628209
S1130810D6C0E981F0E0EE0FFF1FEE0FFF1FEE5888
S1130820FE4F4D905D906C9012974082518262828F
S1130830C6C0E981F0E03F01660C771C660C771CAA
S1130840F301EE58FE4FFF83EE83E7E2F1E04080D0
S113085051806280EE81FF81408251826282AFC00A
S1130860E981F0E03F01660C771C660C771CF3010C
S1130870EE58FE4FFF83EE83F90140805180628081
S1130880EE81FF8140825182628299C0E981F0E069
S11308903F01660C771C660C771CF301EE58FE4F83
S11308A0FF83EE83FA01408051806280EE81FF81F4
S11308B040825182628283C0E981F0E03F01660C8C
S11308C0771C660C771CF301EE58FE4FFF83EE8312
S11308D0F401408051806280EE81FF814082518228
S11308E062826DC0E981F0E03F01660C771C660C02
S11308F0771CF301EE58FE4FFF83EE83F80140802E
S113090051806280EE81FF8140825182628257C0B1
S1130910E981F0E03F01660C771C660C771CF3015B
S1130920EE58FE4FFF83EE83FB01408051806280CE
S1130930EE81FF8140825182628241C0E981F0E010
S11309403F01660C771C660C771CF301EE58FE4FD2
S1130950FF83EE83F701408051806280EE81FF8146
S11309604082518262822BC0E981F0E03F01660C33
S1130970771C660C771CF301EE58FE4FFF83EE8361
S1130980F601408051806280EE81FF814082518275
S1130990628215C0E981F0E03F01660C771C660CA9
S11309A0771CF301EE58FE4FFF83EE83F501408080
S11309B051806280EE81FF81408251826282E981AE
S11309C0EF5FE9833394FC01E30DF11DE081EA302C
S11309D009F00ECD01C0312C1B821A8286EF9FEFE5
S11309E09D838C83E32CF12CEE0CFF1CEE0CFF1C7E
S11309F0FAE0EF0EF11CAA24A3940F2EF6EFCF2EEB
S1130A00DD24DA94F02D48C0B82E8C819D81800FAE
S1130A10911F99232CF460E0802F0E9422010BC0C7
S1130A208C819D81F801EE58FE4FE80FF91F60811B
S1130A30802F0E9422018FE891E00197F1F700C016
S1130A4000008A819B818C329140B9F41B821A8206
S1130A508C819D81E816F90649F4DD82CC820F5F12
S1130A601F4FB12C0A30110581F61AC08C819D816B
S1130A7001969D838C838B2D06C08A819B81019670
S1130A809B838A838B2D0F5F1F4F0A30110509F05A
S1130A90BBCF1982BB2029F000E010E0BA2CB5CFFF
S1130AA0198227960FB6F894DEBF0FBECDBFDF9133
S1130AB0CF911F910F91FF90EF90DF90CF90BF9057
S1130AC0AF909F908F907F906F905F904F903F90EA
S1130AD00895FF920F931F93CF93DF93F82E862FE1
S1130AE00E94850100E711E0F8018081C6EDD1E0A4
S1130AF08883818189838AE38A838F2D0E9485017B
S1130B00F80180818B8381818C838AE08D83CE017F
S1130B100E94AF01DF91CF911F910F91FF90089533
S1130B20EF92FF920F931F93CF93DF93E62EC6EDC0
S1130B30D1E00F2EFAE0FF2EF02DFE019F2D119231
S1130B409A95E9F794E6988391E6998394E79A83D2
S1130B5095E69B839AE39C830E94850100E711E05C
S1130B60F80180818D8381818E838DE28F838E2D28
S1130B700E948501F8018081888781818987FA86AE
S1130B80CE010E94AF01DF91CF911F910F91FF9091
S1130B90EF900895CF92DF92EF92FF920F931F93FD
S1130BA0CF93DF93182F8AE0E6EDF1E0DF011D9289
S1130BB08A95E9F7EF010F2EF5E6CF2EF02D0F2ED3
S1130BC0FAE3DF2EF02D0F2EF0E7EF2EF1E0FF2EEB
S1130BD0F02D0AE0C882D982812F0E948501F70195
S1130BE080818A8381818B830C83CE010E94AF0133
S1130BF01B9907C01B9BFECF1B3310F41F5F01C062
S1130C0010E01C99E7CF1C9BFECF80E091E00E948E
S1130C10AF01812FDF91CF911F910F91FF90EF9042
S1130C20DF90CF900895CF92DF92EF92FF920F93CF
S1130C301F93CF93DF93182F8AE0E6EDF1E0DF01F5
S1130C401D928A95E9F7EF010F2EF8E6CF2EF02DCD
S1130C500F2EFAE3DF2EF02D0F2EF0E7EF2EF1E04A
S1130C60FF2EF02D0AE0C882D982812F0E948501CF
S1130C70F70180818A8381818B830C83CE010E945A
S1130C80AF011C9907C01C9BFECF173110F41F5FE6
S1130C9001C010E01B99E7CF1B9BFECF80E091E0E1
S1130CA00E94AF01812FDF91CF911F910F91FF908F
S1130CB0EF90DF90CF900895CF92DF92EF92FF9262
S1130CC00F931F93CF93DF93182F8AE0E6EDF1E0A3
S1130CD0DF011D928A95E9F7EF010F2EF9E7CF2E78
S1130CE0F02D0F2EFAE3DF2EF02D0F2EF0E7EF2E6E
S1130CF0F1E0FF2EF02D0AE0C882D982812F0E94F4
S1130D008501F70180818A8381818B830C83CE01E5
S1130D100E94AF011C990BC01C9BFECF1C3020F419
S1130D20112321F01F5F03C011E001C01BE01B99D8
S1130D30E3CF1B9BFECF80E091E00E94AF01812FA7
S1130D40DF91CF911F910F91FF90EF90DF90CF90A3
S1130D500895CF92DF92EF92FF920F931F93CF9358
S1130D60DF93182F8AE0E6EDF1E0DF011D928A950A
S1130D70E9F7EF010F2EF4E6CF2EF02D0F2EFAE354
S1130D80DF2EF02D0F2EF0E7EF2EF1E0FF2EF02DE9
S1130D900AE0C882D982812F0E948501F7018081EF
S1130DA08A8381818B830C83CE010E94AF011B99BE
S1130DB00BC01B9BFECF1F3120F4112321F01F5FBA
S1130DC003C011E001C01EE11C99E3CF1C9BFECFC0
S1130DD080E091E00E94AF01812FDF91CF911F91BC
S1130DE00F91FF90EF90DF90CF900895CF93DF9312
S1130DF0CDB7DEB728970FB6F894DEBF0FBECDBFD0
S1130E000E940F0184B1816C84B985B18E7385B958
S1130E100E947A0760E08EE80E94AC0784E091E0CB
S1130E200E94AF0165E1CE0101960E94420966E18C
S1130E30CE0101960E94420967E1CE0101960E940B
S1130E40420968E1CE0101960E9442096B818A81C0
S1130E500E9469054F816E818D810E9490051B99C6
S1130E6023C01B9BFECF1C9911C01C9BFECF67E1C6
S1130E70CE0101960E9442098D810E94A906482F45
S1130E8067E1CE0101960E9447090EC065E1CE01DB
S1130E9001960E9442098A810E94CA05482F65E191
S1130EA0CE0101960E9447091C99BCCF1C9BFECF22
S1130EB01C9911C01B9BFECF68E1CE0101960E94D4
S1130EC042098E810E945C06482F68E1CE0101969A
S1130ED00E944709A7CF66E1CE0101960E9442090C
S1130EE08B810E941306482F66E1CE0101960E9471
S1130EF0470998CF85B1816C85B92E982F98289889
S1130F008FE891E00197F1F700C0000008952E9852
S1130F102F982F9A85E38A95F1F700000895209A77
S1130F20E7ECF0E03197F1F700C0000098E0289872
S1130F3080FD289A2E98E7ECF0E03197F1F700C095
S1130F4000002E9AE7ECF0E03197F1F700C00000C2
S1130F508695915061F70895CF93DF93D82FC62FCC
S1130F600E9487078D2F0E948F078C2F0E948F0766
S1130F702F9887EC90E00197F1F700C000002E98BD
S1130F80DF91CF910895209887EC90E00197F1F7D5
S1130F9000C0000028E080E02E9AE7ECF0E03197F2
S1130FA0F1F700C000002E98E7ECF0E03197F1F77C
S1130FB000C0000093B18695979599279795892B42
S1130FC0215051F70895CF93C82F0E9487078C2F83
S1130FD00E948F070E94C307E7ECF0E03197F1F716
S1130FE000C000002F98E7ECF0E03197F1F700C063
S1130FF000002E98CF910895CF93DF93EC012F300A
S113100009F06DC0643181F481E80E94E307982FF0
S11310109077969596959695292F220F220F920FE9
S11310208F70890F88832BC1653181F483E80E9416
S1131030E307982F9077969596959695292F220FEA
S1131040220F920F8F70890F898319C1663191F431
S113105085E80E94E3079CE09F83982F9073969500
S113106096959695292F220F220F920F8F70890F34
S11310708A8305C1673181F487E80E94E307982FCA
S11310809073969596959695292F220F220F920F7D
S11310908F70890F8C83F3C0683179F489E80E94DA
S11310A0E30784FB992790F9990F292F220F220F28
S11310B0920F8F70890F8D83E2C0693109F0DFC010
S11310C08DE80E94E307982F92959F70990F292F1E
S11310D0220F220F920F8F70890F8983D0C0203185
S11310E009F0CDC06431B9F48DEC489F812D1124F1
S11310F086958695869590E1899FB0011124607745
S1131100880F982F990F990F890F481B642B80E83B
S11311100E94AC07B4C06531B9F48DEC489F812DB1
S1131120112486958695869590E1899FB0011124B6
S11311306077880F982F990F990F890F481B642B9C
S113114082E80E94AC079BC0663109F04FC08F81D2
S11311508A30C1F48DEC489F812D112486958695A3
S1131160869590E1899FB00111246071880F982FB2
S1131170990F990F890F481B4068642B84E80E94DB
S1131180AC077DC08B30C1F48DEC489F812D1124B8
S113119086958695869590E1899FB00111246071AA
S11311A0880F982F990F990F890F481B406A642B59
S11311B084E80E94AC0763C08C3009F060C08DECF9
S11311C0489F812D112486958695869590E1899F67
S11311D0B00111246073880F982F990F990F890F0C
S11311E0481B642B84E80E94AC0749C06731B9F4FA
S11311F08DEC489F812D112486958695869590E1E6
S1131200899FB00111246073880F982F990F990F4B
S1131210890F481B642B86E80E94AC0730C06831F4
S1131220B9F48DEC489F812D112486958695869579
S113123090E1899FB00111246071880F982F990F54
S1131240990F890F481B642B88E80E94AC0717C0CC
S11312506931A9F48DEC489F812D112486958695DA
S1131260869590E1899FB0011124880F982F990FDA
S1131270990F890F481B642B8CE80E94AC07DF91FF
S1131280CF9108952FE040E00E94FC07089520E1EB
S11312900E94FC070895EE0FFF1F0590F491E02DC6
S10912A00994F894FFCF4D
S11312A66F6B2100CFD0C8C2C5D220C5C2C3C5CD7D
S11312B6213A290A00031C0304040411110E1F0118
S11312C601000C1C011F011F150E0F101F1F05071F
S11312D61F011F1F040A001700000A001F111F1711
S11312E6151F1F151F1905031F151D17151D0704A7
S11312F61F15151F191513121F101F051B1F110E7D
S11313061E051E0E110E1F10101F15151F041F009B
S9030000FC
